:100000000C94C8000C9404010C94E5000C94E500D9
:100010000C94E5000C94E5000C94E5000C94E500CC
:100020000C94E5000C94E5000C94E5000C944D0153
:100030000C94E5000C94E5000C943B010C94E50055
:100040000C94E5000C94E5000C9443080C94E50036
:100050000C94E5000C94E5000C94E5000C94E5008C
:100060000C94E5000C94E500B902BE02C302C8027C
:10007000CD02D202D702DC02E102E602EE02F30276
:10008000F802FD02020307030C03110316031B030E
:10009000200325032A032F0336034103B602460338
:1000A0004B03540359035F03840389038E039303B3
:1000B00098039D03A203A703AC03B103B603BB03DC
:1000C000C003C503CA03CF03D403D903DE03E3038C
:1000D000E803ED03F203F70321040704FE030C0415
:1000E000110418041D044C6F6164696E6720706C04
:1000F000656173652077616974202E2E2E00507221
:1001000065737320616E79206B657920746F20624E
:100110006F6F74202E2E2E00536B79576F646420FE
:10012000444350552D3136206861726477617265A1
:1001300020656D756C61746F7200107C0500E2853E
:100140000080C1894180518031801110210C107CC8
:100150001B005284597CFF0032843C7C2000C17D0E
:100160001500C1A542844CC0C17D1A00C19DC1616A
:10017000A101A105A10901100794020C27901A08FA
:1001800017A01A1401050080216011600160C1618F
:1001900011241FBECFEFD8E0DEBFCDBF11E0A0E03D
:1001A000B1E0ECEAF1E102C005900D92A830B10790
:1001B000D9F718E0A8E0B1E001C01D92A732B1075D
:1001C000E1F70E9476050C94D4080C940000529834
:1001D0005A9AE9E6F0E080818C7F82608083E89A19
:1001E0000895809108010895809308018091080185
:1001F0000E945E058091080190E0882309F491E057
:10020000892F0E94580508951F920F920FB60F92E2
:1002100011242F933F934F935F936F937F938F930B
:100220009F93AF93BF93EF93FF938091080190E06A
:10023000882309F491E090930801809108010E94BD
:100240005E058091080190E0882309F491E0892FF0
:100250000E945805FF91EF91BF91AF919F918F91AF
:100260007F916F915F914F913F912F910F900FBEB2
:100270000F901F9018951F920F920FB60F92112496
:100280008F939F9385B191E0892785B99F918F9135
:100290000F900FBE0F901F9018951F920F920FB6E0
:1002A0000F9211248F9315BC88E0809381001092E7
:1002B0006E0010926F0028988F910F900FBE0F90D4
:1002C0001F901895DF92EF92FF920F931F93CF9399
:1002D000DF938B019C01EA01209A2898000F111FDF
:1002E000221F331F42E0D42ED4BC15BC10928000D4
:1002F00088E0809381001092820060E074E284EFD5
:1003000090E0A90198010E94B20879018A0181E078
:1003100080930901C90101978F3F910509F008F405
:100320003FC0D0920901D801C70133E0B695A79527
:10033000979587953A95D1F701978F3F910581F170
:1003400078F183E080930901D801C70126E0B695D2
:10035000A795979587952A95D1F701978F3F910596
:10036000F9F0F0F084E080930901BB27A12F902FD2
:100370008F2D01978F3F910599F090F085E0809344
:100380000901EAE016950795F794E794EA95D1F705
:10039000C70101978F3F910519F010F08FEF90E0A2
:1003A00087BD88EE93E0BE010E949E089B0140E05D
:1003B00050E060E074E284EF90E00E94B2087901BE
:1003C0008A0181E080930A01A80197012150304001
:1003D00040405040203080E0380781E0480780E00E
:1003E000580708F460C082E080930A01A8019701D1
:1003F00073E056954795379527957A95D1F7215013
:10040000304040405040203080E0380781E04807CD
:1004100080E0580708F447C083E080930A01A801F0
:10042000970166E056954795379527956A95D1F7D8
:100430002150304040405040203080E0380781E07B
:10044000480780E0580778F184E080930A01552737
:10045000412F302F2F2D2150304040405040203030
:1004600080E0380781E0480780E05807E0F085E049
:1004700080930A01A80197019AE056954795379510
:1004800027959A95D1F72150304040405040203078
:1004900080E0380781E0480780E0580720F02FEF20
:1004A0003FEF40E050E0BB27A52F942F832F809390
:1004B000890020938800DF91CF911F910F91FF90C9
:1004C000EF90DF90089516BC109285001092840082
:1004D00082E080936E0080936F008091090185BD5A
:1004E00080910A018860809381000895FC01118247
:1004F000108213821282158214821782168211864C
:100500001086138612861586148617861686118A1B
:10051000108A138A128A158A148A08951F93182F35
:100520008E51823030F0825F883018F020E030E069
:100530000FC080911D0190911E0120910B012F5F32
:1005400020930B012150820F911D0E9432079C01C4
:10055000E12FF0E0E032F10508F0ADC0EC5CFF4FB8
:10056000EE0FFF1F0590F491E02D099420E030E09C
:10057000A6C020910D0130910E01A1C020910F0164
:10058000309110019CC0209111013091120197C04F
:10059000209113013091140192C0209115013091E6
:1005A00016018DC0209117013091180188C020914B
:1005B000190130911A0183C020911B0130911C0157
:1005C0007EC080910D0190910E0104C080910F01B9
:1005D000909110010E9432079C0171C0809111011D
:1005E00090911201F7CF8091130190911401F2CFF5
:1005F0008091150190911601EDCF80911701909196
:100600001801E8CF8091190190911A01E3CF8091F0
:100610001B0190911C01DECF80910D0190910E0184
:1006200022C080910F01909110011DC08091110195
:100630009091120118C0809113019091140113C080
:1006400080911501909116010EC080911701909133
:10065000180109C08091190190911A0104C080917C
:100660001B0190911C01820F931FB4CF80911F0139
:100670009091200101969093200180931F01019792
:10068000A9CF80911F0190912001A4CF20911F013B
:100690003091200114C020911D0130911E018091E4
:1006A0000B01280F311D0BC0209121013091220137
:1006B00006C0C9018FCF212F30E020523040C90140
:1006C0001F9108951F93CF93DF93182FEB01805153
:1006D000883028F01E3119F020E030E007C080910A
:1006E0001D0190911E010E9432079C01E12FF0E054
:1006F000EF31F10508F0A5C0EC5AFF4FEE0FFF1FD8
:100700000590F491E02D0994D0930E01C0930D0152
:1007100098C0D0931001C0930F0193C0D0931201E1
:10072000C09311018EC0D0931401C093130189C0EE
:10073000D0931601C093150184C0D0931801C093C3
:1007400017017FC0D0931A01C09319017AC0D093CA
:100750001C01C0931B0175C080910D0190910E0189
:100760006DC080910F019091100168C080911101BE
:100770009091120163C080911301909114015EC0A9
:10078000809115019091160159C0809117019091A7
:10079000180154C08091190190911A014FC08091A5
:1007A0001B0190911C014AC080910D0190910E0196
:1007B00022C080910F01909110011DC08091110104
:1007C0009091120118C0809113019091140113C0EF
:1007D00080911501909116010EC0809117019091A2
:1007E000180109C08091190190911A0104C08091EB
:1007F0001B0190911C01820F931F20C080911F014B
:100800009091200101979093200180931F01809186
:100810001F019091200112C0D0932001C0931F01AD
:1008200010C0D0931E01C0931D0110920B0109C08E
:10083000D0932201C093210104C0C901BE010E94CE
:100840006D07DF91CF911F910895DF92EF92FF9294
:100850000F931F93CF93DF9381E00E9470058091E7
:100860001D0190911E01019690931E0180931D0120
:1008700001970E9432078C0110920B01807F9370C8
:1008800024E0969587952A95E1F7D82E0F700E945F
:100890008E027C01812F869586950E948E02EC0146
:1008A00080910C01882391F0002309F441C08091CC
:1008B0001D0190911E0120910B01820F911D9093BB
:1008C0001E0180931D0110920C01BCC0073009F479
:1008D00075C0083090F4033009F453C0043030F48C
:1008E000013021F1023008F048C022C0053009F47F
:1008F00054C0063008F059C048C00B3009F474C029
:100900000C3038F4093009F467C00A3008F068C0C8
:100910005CC00D3009F470C00D3008F469C00E30B1
:1009200009F46EC00F3009F076C06EC0BE0175C00C
:10093000DD20F9F081E0D816E1F480911F0190915B
:10094000200101979093200180931F0180911F0146
:100950009091200160911D0170911E0120910B0169
:10096000620F711D0E946D07D0931E01C0931D017F
:1009700069C080E00E94F4004EC0BE016E0D7F1D74
:100980004CC0B7016C1B7D0B48C0CE9DB001CF9D04
:10099000700DDE9D700D112440C02097E1F1C7015C
:1009A000BE010E949E089B0107C02097A1F1C701CC
:1009B000BE010E949E089C01B9012FC0B70102C070
:1009C000660F771FCA95E2F728C0B70102C0769577
:1009D0006795CA95E2F721C0BE016E217F211DC037
:1009E000BE016E297F2919C0BE016E257F2515C065
:1009F000EC16FD0669F40FC0EC16FD0661F408C0A4
:100A0000CE15DF0540F004C0CE21DF21CD2B19F437
:100A100081E080930C0160E070E001500B3018F42D
:100A20008D2D0E94620380911D0190911E012091E5
:100A30000B01820F911D90931E0180931D0180E098
:100A40000E947005DF91CF911F910F91FF90EF9061
:100A5000DF9008950F931F93DF93CF93CDB7DEB749
:100A600000E010E0C8010E94B607BC01C8010E9466
:100A70006D070F5F1F4F0B321105A1F7ADE0B1E01D
:100A8000FE01379686E101900D928150E1F7CF91FA
:100A9000DF911F910F91089584B1866084B98AB166
:100AA000806E8AB98BB18F718BB92A9A2998089573
:100AB000882311F02A9A08952A980895882311F01E
:100AC000299A089529980895882311F05E9A089527
:100AD0005E980895882311F05F9A08955F980895AD
:100AE000882311F05D9A08955D980895DF93CF9360
:100AF000CDB7DEB766970FB6F894DEBF0FBECDBF99
:100B0000F8940E944C0585E090E060E070E041E0E0
:100B100050E00E94D90760E875E280E090E00E9412
:100B2000FF070E94E70064EF71E080E090E044EF8F
:100B300051E00E9462010E942B070E94B3070E94AD
:100B40001A070E942007CE0101960E94760278942F
:100B500080E197E220E931E0F9013197F1F701975F
:100B6000D9F70E94790680E060E00E94440688E19F
:100B700091E00E9435080E94630281E00E945E05B8
:100B800084EC99E020E931E0F9013197F1F7019720
:100B9000D9F780E00E945E0581E00E94700584EC38
:100BA00099E020E931E0F9013197F1F70197D9F7A0
:100BB00080E00E94700581E00E94640584EC99E069
:100BC00020E931E0F9013197F1F70197D9F780E099
:100BD0000E94640581E00E946A0584EC99E020E9A6
:100BE00031E0F9013197F1F70197D9F780E00E94E0
:100BF0006A0580E061E00E9444068EEF90E00E946A
:100C000035080E94320686EE90E00E9435088DB7C6
:100C10009EB746970FB6F8949EBF0FBE8DBFADB777
:100C2000BEB71196FE01319686E101900D9281507A
:100C3000E1F70E942A058DB79EB746960FB6F89445
:100C40009EBF0FBE8DBF0E9463020E94790680E0A6
:100C500060E00E9444060E94F1008823E1F30E94B4
:100C60002504F9CF809123018823E1F31092230119
:100C7000089581E080932301089589B18695869532
:100C800086958095817008950F931F93082F162FD6
:100C90008BE10E941F088BE50E941F08812F6AE0EC
:100CA0000E949208805D0E941F08812F6AE00E94C6
:100CB0009208892F805D0E941F088BE30E941F0805
:100CC000802F6AE00E949208805D0E941F08802F9A
:100CD0006AE00E949208892F805D0E941F0886E6C4
:100CE0000E941F0888EC90E00197F1F71F910F9187
:100CF00008958BE10E941F088BE50E941F0882E384
:100D00000E941F088AE40E941F0888EC90E0019767
:100D1000F1F708951F93182F8BE10E941F088BE5B0
:100D20000E941F0884E30E941F08812F805D0E949B
:100D30001F088DE60E941F0888EC90E00197F1F7EC
:100D40001F9108951F93182F8BE10E941F088BE5B8
:100D50000E941F08812F805D0E941F088DE60E945F
:100D60001F0888EC90E00197F1F71F910895EF922A
:100D7000FF921F93CF93DF939C01EB0161157105E7
:100D800009F447C08F7195E0369527959A95E1F75C
:100D9000622F0E944406C7FF03C084E090E002C0B7
:100DA00085E090E00E94A2067E011F2D12951F7023
:100DB000183020F0185081E090E002C082E090E00E
:100DC0000E94A206E12FF0E0E050FF4F808190E00A
:100DD0000E948A06CE0180709F70192F983020F0F3
:100DE000185083E090E002C086E090E00E94A206E6
:100DF000E12FF0E0E050FF4F808190E00E948A06F2
:100E00009E012F77822F0E941F0888EC90E00197A7
:100E1000F1F7DF91CF911F91FF90EF900895459AE0
:100E200081E28A95F1F700005C9A81E28A95F1F7F8
:100E300000000895549A3D9A53980E940F07089510
:100E4000459881E28A95F1F700005C9881E28A95E5
:100E5000F1F70000089587B18F6087B988B18F607E
:100E600088B90895CF93DF93EC0181E00E946A0571
:100E700080E9C030D80741F480E00E946A05C09143
:100E80002401D091250125C08FEFC03CD80768F020
:100E9000C095D09580E00E946A05CC0FDD1FCA5531
:100EA000DB4F0990D881C02D14C081E0C03CD80729
:100EB00030F080E00E946A05C0E0D0E00AC0CC0FAC
:100EC000DD1FCA5DDE4F0990D881C02D80E00E94F1
:100ED0006A05CE01DF91CF9108950F931F93CF93B1
:100EE000DF93EC018B0181E00E946A05CE01805006
:100EF000904822E08030920720F4B8010E94B706A3
:100F00002AC08FEFC03CD80760F0C095D09580E034
:100F10000E946A05CC0FDD1FCA55DB4F1983088379
:100F20001DC020E9C030D20729F410932501009399
:100F3000240111C081E0C03CD80738F080E00E9455
:100F40006A0580E00E94F40009C0CC0FDD1FCA5D75
:100F5000DE4F1983088380E00E946A05DF91CF91FC
:100F60001F910F9108953C9A449A08950F931F93EF
:100F7000CF93DF93EC0181E00E94640581E0C03CE7
:100F8000D80730F080E00E94640520E030E00BC01C
:100F9000FE01EE0FFF1FE65CFE4F0591149180E00D
:100FA0000E9464059801C901DF91CF911F910F91B3
:100FB000089524B12C6224B925B1277D25B9249840
:100FC0002CB5382F33702C7F322B3CBD2DB5969528
:100FD00087959695879581702E7F822B8DBD8CB5D8
:100FE000837F862B8CBD452B19F48CB5806202C0A3
:100FF0008CB58F7D8CBD8CB580658CBD08959B01B3
:10100000AC0160E472E48FE090E00E94B208C90194
:10101000DA010197A109B1095098519A292F3A2F65
:101020004B2F55272093C5008093C4001092C00019
:1010300088E98093C10086E08093C20008951F93E1
:10104000182F81E28A95F1F700000E943D0688235F
:10105000E1F38091C00085FFFCCF1093C60081E2D0
:101060008A95F1F700001F910895CF93DF93EC016B
:1010700002C00E941F08FE01219684918823C9F7AF
:10108000DF91CF9108951F920F920FB60F92112406
:101090001F932F933F934F935F936F937F938F9300
:1010A0009F93AF93BF93EF93FF938091C00087FF0F
:1010B000FCCF1091C600112321F481E08093260813
:1010C0001FC080E090E90E943207892B19F00E942E
:1010D000630214C080912608882351F0612F70E0CC
:1010E000716080E090E90E946D071092260806C0AA
:1010F00080E090E9612F70E00E946D070E94390640
:10110000FF91EF91BF91AF919F918F917F916F91DF
:101110005F914F913F912F911F910F900FBE0F90B4
:101120001F901895991B79E004C0991F961708F035
:10113000961B881F7A95C9F780950895AA1BBB1B3B
:1011400051E107C0AA1FBB1FA617B70710F0A61BC7
:10115000B70B881F991F5A95A9F780959095BC01E8
:10116000CD010895A1E21A2EAA1BBB1BFD010DC0E3
:10117000AA1FBB1FEE1FFF1FA217B307E407F50747
:1011800020F0A21BB30BE40BF50B661F771F881F23
:10119000991F1A9469F760957095809590959B01B9
:0C11A000AC01BD01CF010895F894FFCF11
:0811AC0000040206010503071F
:00000001FF
